{
  "contractName": "Decentragram",
  "abi": [
    {
      "anonymous": false,
      "inputs": [
        {
          "indexed": false,
          "internalType": "uint256",
          "name": "id",
          "type": "uint256"
        },
        {
          "indexed": false,
          "internalType": "string",
          "name": "imgHash",
          "type": "string"
        },
        {
          "indexed": false,
          "internalType": "string",
          "name": "description",
          "type": "string"
        },
        {
          "indexed": false,
          "internalType": "uint256",
          "name": "tipAmount",
          "type": "uint256"
        },
        {
          "indexed": false,
          "internalType": "address payable",
          "name": "author",
          "type": "address"
        }
      ],
      "name": "ImageCreated",
      "type": "event"
    },
    {
      "anonymous": false,
      "inputs": [
        {
          "indexed": false,
          "internalType": "uint256",
          "name": "id",
          "type": "uint256"
        },
        {
          "indexed": false,
          "internalType": "string",
          "name": "imgHash",
          "type": "string"
        },
        {
          "indexed": false,
          "internalType": "string",
          "name": "description",
          "type": "string"
        },
        {
          "indexed": false,
          "internalType": "uint256",
          "name": "tipAmount",
          "type": "uint256"
        },
        {
          "indexed": false,
          "internalType": "address payable",
          "name": "author",
          "type": "address"
        }
      ],
      "name": "ImageTipped",
      "type": "event"
    },
    {
      "constant": true,
      "inputs": [],
      "name": "imageCount",
      "outputs": [
        {
          "internalType": "uint256",
          "name": "",
          "type": "uint256"
        }
      ],
      "payable": false,
      "stateMutability": "view",
      "type": "function"
    },
    {
      "constant": true,
      "inputs": [
        {
          "internalType": "uint256",
          "name": "",
          "type": "uint256"
        }
      ],
      "name": "images",
      "outputs": [
        {
          "internalType": "uint256",
          "name": "id",
          "type": "uint256"
        },
        {
          "internalType": "string",
          "name": "imgHash",
          "type": "string"
        },
        {
          "internalType": "string",
          "name": "description",
          "type": "string"
        },
        {
          "internalType": "uint256",
          "name": "tipAmount",
          "type": "uint256"
        },
        {
          "internalType": "address payable",
          "name": "author",
          "type": "address"
        }
      ],
      "payable": false,
      "stateMutability": "view",
      "type": "function"
    },
    {
      "constant": true,
      "inputs": [],
      "name": "name",
      "outputs": [
        {
          "internalType": "string",
          "name": "",
          "type": "string"
        }
      ],
      "payable": false,
      "stateMutability": "view",
      "type": "function"
    },
    {
      "constant": false,
      "inputs": [
        {
          "internalType": "string",
          "name": "_imgHash",
          "type": "string"
        },
        {
          "internalType": "string",
          "name": "_description",
          "type": "string"
        }
      ],
      "name": "uploadImage",
      "outputs": [],
      "payable": false,
      "stateMutability": "nonpayable",
      "type": "function"
    },
    {
      "constant": false,
      "inputs": [
        {
          "internalType": "uint256",
          "name": "_id",
          "type": "uint256"
        }
      ],
      "name": "tipImageAuthor",
      "outputs": [],
      "payable": true,
      "stateMutability": "payable",
      "type": "function"
    }
  ],
  "bytecode": "0x60806040526040518060400160405280600c81526020017f446563656e7472616772616d00000000000000000000000000000000000000008152506000908051906020019061004f929190610067565b50600060015534801561006157600080fd5b5061010c565b828054600181600116156101000203166002900490600052602060002090601f016020900481019282601f106100a857805160ff19168380011785556100d6565b828001600101855582156100d6579182015b828111156100d55782518255916020019190600101906100ba565b5b5090506100e391906100e7565b5090565b61010991905b808211156101055760008160009055506001016100ed565b5090565b90565b610e558061011b6000396000f3fe60806040526004361061004a5760003560e01c806306fdde031461004f578063173a5064146100df578063848564821461010d57806392053b631461026e578063a91b831414610299575b600080fd5b34801561005b57600080fd5b506100646103f8565b6040518080602001828103825283818151815260200191508051906020019080838360005b838110156100a4578082015181840152602081019050610089565b50505050905090810190601f1680156100d15780820380516001836020036101000a031916815260200191505b509250505060405180910390f35b61010b600480360360208110156100f557600080fd5b8101908080359060200190929190505050610496565b005b34801561011957600080fd5b506101466004803603602081101561013057600080fd5b81019080803590602001909291905050506108fb565b6040518086815260200180602001806020018581526020018473ffffffffffffffffffffffffffffffffffffffff1673ffffffffffffffffffffffffffffffffffffffff168152602001838103835287818151815260200191508051906020019080838360005b838110156101c85780820151818401526020810190506101ad565b50505050905090810190601f1680156101f55780820380516001836020036101000a031916815260200191505b50838103825286818151815260200191508051906020019080838360005b8381101561022e578082015181840152602081019050610213565b50505050905090810190601f16801561025b5780820380516001836020036101000a031916815260200191505b5097505050505050505060405180910390f35b34801561027a57600080fd5b50610283610a81565b6040518082815260200191505060405180910390f35b3480156102a557600080fd5b506103f6600480360360408110156102bc57600080fd5b81019080803590602001906401000000008111156102d957600080fd5b8201836020820111156102eb57600080fd5b8035906020019184600183028401116401000000008311171561030d57600080fd5b91908080601f016020809104026020016040519081016040528093929190818152602001838380828437600081840152601f19601f8201169050808301925050505050505091929192908035906020019064010000000081111561037057600080fd5b82018360208201111561038257600080fd5b803590602001918460018302840111640100000000831117156103a457600080fd5b91908080601f016020809104026020016040519081016040528093929190818152602001838380828437600081840152601f19601f820116905080830192505050505050509192919290505050610a87565b005b60008054600181600116156101000203166002900480601f01602080910402602001604051908101604052809291908181526020018280546001816001161561010002031660029004801561048e5780601f106104635761010080835404028352916020019161048e565b820191906000526020600020905b81548152906001019060200180831161047157829003601f168201915b505050505081565b6000811180156104a857506001548111155b6104b157600080fd5b6104b9610d36565b600260008381526020019081526020016000206040518060a001604052908160008201548152602001600182018054600181600116156101000203166002900480601f01602080910402602001604051908101604052809291908181526020018280546001816001161561010002031660029004801561057a5780601f1061054f5761010080835404028352916020019161057a565b820191906000526020600020905b81548152906001019060200180831161055d57829003601f168201915b50505050508152602001600282018054600181600116156101000203166002900480601f01602080910402602001604051908101604052809291908181526020018280546001816001161561010002031660029004801561061c5780601f106105f15761010080835404028352916020019161061c565b820191906000526020600020905b8154815290600101906020018083116105ff57829003601f168201915b50505050508152602001600382015481526020016004820160009054906101000a900473ffffffffffffffffffffffffffffffffffffffff1673ffffffffffffffffffffffffffffffffffffffff1673ffffffffffffffffffffffffffffffffffffffff1681525050905060008160800151905060003490508173ffffffffffffffffffffffffffffffffffffffff166108fc829081150290604051600060405180830381858888f193505050501580156106db573d6000803e3d6000fd5b50808360600151018360600181815250508260026000868152602001908152602001600020600082015181600001556020820151816001019080519060200190610726929190610d7b565b506040820151816002019080519060200190610743929190610d7b565b506060820151816003015560808201518160040160006101000a81548173ffffffffffffffffffffffffffffffffffffffff021916908373ffffffffffffffffffffffffffffffffffffffff1602179055509050507f1be5317bca8d3f70dc1efe89958be71bff36cdca33fc00a6423e25eb2f1d492f8360000151846020015185604001518660600151866040518086815260200180602001806020018581526020018473ffffffffffffffffffffffffffffffffffffffff1673ffffffffffffffffffffffffffffffffffffffff168152602001838103835287818151815260200191508051906020019080838360005b83811015610850578082015181840152602081019050610835565b50505050905090810190601f16801561087d5780820380516001836020036101000a031916815260200191505b50838103825286818151815260200191508051906020019080838360005b838110156108b657808201518184015260208101905061089b565b50505050905090810190601f1680156108e35780820380516001836020036101000a031916815260200191505b5097505050505050505060405180910390a150505050565b6002602052806000526040600020600091509050806000015490806001018054600181600116156101000203166002900480601f0160208091040260200160405190810160405280929190818152602001828054600181600116156101000203166002900480156109ad5780601f10610982576101008083540402835291602001916109ad565b820191906000526020600020905b81548152906001019060200180831161099057829003601f168201915b505050505090806002018054600181600116156101000203166002900480601f016020809104026020016040519081016040528092919081815260200182805460018160011615610100020316600290048015610a4b5780601f10610a2057610100808354040283529160200191610a4b565b820191906000526020600020905b815481529060010190602001808311610a2e57829003601f168201915b5050505050908060030154908060040160009054906101000a900473ffffffffffffffffffffffffffffffffffffffff16905085565b60015481565b6000825111610a9557600080fd5b6000815111610aa357600080fd5b600073ffffffffffffffffffffffffffffffffffffffff163373ffffffffffffffffffffffffffffffffffffffff161415610add57600080fd5b60003390506001600081548092919060010191905055506040518060a001604052806001548152602001848152602001838152602001600081526020018273ffffffffffffffffffffffffffffffffffffffff16815250600260006001548152602001908152602001600020600082015181600001556020820151816001019080519060200190610b6f929190610d7b565b506040820151816002019080519060200190610b8c929190610d7b565b506060820151816003015560808201518160040160006101000a81548173ffffffffffffffffffffffffffffffffffffffff021916908373ffffffffffffffffffffffffffffffffffffffff1602179055509050507fc1d8dfa99b3f84f95d3f0bc4a768addeb97b83b20aef7f9cb6729e126bafd2f960015484846000856040518086815260200180602001806020018581526020018473ffffffffffffffffffffffffffffffffffffffff1673ffffffffffffffffffffffffffffffffffffffff168152602001838103835287818151815260200191508051906020019080838360005b83811015610c8c578082015181840152602081019050610c71565b50505050905090810190601f168015610cb95780820380516001836020036101000a031916815260200191505b50838103825286818151815260200191508051906020019080838360005b83811015610cf2578082015181840152602081019050610cd7565b50505050905090810190601f168015610d1f5780820380516001836020036101000a031916815260200191505b5097505050505050505060405180910390a1505050565b6040518060a0016040528060008152602001606081526020016060815260200160008152602001600073ffffffffffffffffffffffffffffffffffffffff1681525090565b828054600181600116156101000203166002900490600052602060002090601f016020900481019282601f10610dbc57805160ff1916838001178555610dea565b82800160010185558215610dea579182015b82811115610de9578251825591602001919060010190610dce565b5b509050610df79190610dfb565b5090565b610e1d91905b80821115610e19576000816000905550600101610e01565b5090565b9056fea265627a7a72315820d4a897a231f520b821d9ab61848fc6ddd0e07aedd99ab1328d2e92d85d92c62964736f6c63430005100032",
  "source": "pragma solidity ^0.5.0;\n\ncontract Decentragram {\n    string public name = \"Decentragram\";\n    uint public imageCount = 0;\n\n    /* Struct to stores Images */\n    struct Image {\n        uint id;\n        string imgHash;\n        string description;\n        uint tipAmount;\n        /* Keyword payable because the Author can get a Tip for his posted Image */\n        address payable author;\n    }\n\n    /* Event that triggers when a new Image is created */\n    event ImageCreated(\n        uint id,\n        string imgHash,\n        string description,\n        uint tipAmount,\n        address payable author\n    );\n\n    /* Event that triggers when a Image is tipped */\n    event ImageTipped(\n        uint id,\n        string imgHash,\n        string description,\n        uint tipAmount,\n        address payable author\n    );\n\n    /* Each Image is stored with its own ID of Type uint */\n    mapping(uint => Image) public images;\n\n    /*\n       Convention:\n     - Local Variable (like Arguments that are passed) have an Underscore\n     - State Variable (like Variables in a Function) have no Underscore\n    */\n    function uploadImage(string memory _imgHash, string memory _description) public {\n        /* Requirements */\n        /* Make sure that Image Hash exists */\n        require(bytes(_imgHash).length > 0);\n        /* Make sure that Image Description exists */\n        require(bytes(_description).length > 0);\n        /* Make sure that Signer Address exists */\n        require(msg.sender != address(0x0));\n\n        address payable author = msg.sender;\n        imageCount++;\n        /* The global Variable msg comes with each Transaction from Ethereum */\n        /* It represents the Signer of the Transaction */\n        images[imageCount] = Image(imageCount, _imgHash, _description, 0, author);\n        /* Trigger Event when new Image is created */\n        emit ImageCreated(imageCount, _imgHash, _description, 0, author);\n    }\n\n    /* Keyword payable because the Function will pay the Author of the Image */\n    function tipImageAuthor(uint _id) public payable {\n        /* Requirement */\n        /* Make sure that Image ID exists */\n        require(_id > 0 && _id <= imageCount);\n\n        /* Fetching the Image */\n        /* Keyword memory because the Image is from Storage of the Smart Contract and not from the Blockchain */\n        Image memory _image = images[_id];\n\n        /* Fetching the Author */\n        /* Keyword payable because the Author will be paid for his Image */\n        address payable _author = _image.author;\n\n        /* Sending the Author the Amount of Ether which the Signer of this Transaction spent */\n        /* msg.value references the Amount of Ether that was sent with the Transaction from the Signer */\n        uint tipAmount = msg.value;\n        _author.transfer(tipAmount);\n\n        /* Updating Image before its stored in the Blockchain again */\n        _image.tipAmount = _image.tipAmount + tipAmount;\n\n        /* Storing the Image back to the Blockchain */\n        images[_id] = _image;\n\n        /* Trigger Event when new Image is tipped */\n        emit ImageTipped(_image.id, _image.imgHash, _image.description, _image.tipAmount, _author);\n    }\n}",
  "sourcePath": "C:/Users/stein/Downloads/SolidityIPFSImageUploadWeb3ReactJS/src/contracts/Decentragram.sol",
  "compiler": {
    "name": "solc",
    "version": "0.5.16+commit.9c3226ce.Emscripten.clang"
  },
  "schemaVersion": "3.4.1",
  "updatedAt": "2021-06-14T12:19:01.294Z",
  "networkType": "ethereum",
  "devdoc": {
    "methods": {}
  },
  "userdoc": {
    "methods": {}
  }
}